:020000040000FA
:040000001EEF00F0FF
:06000800058252ED00F03C
:100018000580D8CF01F0E8CF02F0E0CF03F0020E60
:10002800046EF09003C0E0FF02C0E8FF01C0D8FFF3
:10003800059010004CEF00F03FEC00F0000E956EBC
:10004800000E8C6E0404D8A42CEF00F02EEF00F004
:1000580030EF00F0AA0E8C6E020E0418D8A437EF09
:1000680000F039EF00F026EF00F0660E8C6E26EFF8
:1000780000F01EEF00F093809382F086F090F288F3
:10008800F292F28CF28EF19CF19AD08EF09C1200D2
:10009800046A05900592000120EF00F00600010EA9
:0800A800046EF29205921100B2
:020000040020DA
:08000000FFFFFFFFFFFFFFFF00
:020000040030CA
:0E000000000C181EFF8184FF0FC00FE00F40A0
:00000001FF
